:020000040800F2
:10000000002000201D2D0008C52B0008C72B00086C
:1000100000000000000000000000000000000000E0
:10002000000000000000000000000000C92B0008D4
:100030000000000000000000CB2B0008CD2B0008C2
:100040006D2D00086D2D00086D2D00086D2D000828
:100050006D2D00086D2D00086D2D00086D2D000818
:1000600000000000D52B00086D2D00086D2D000844
:100070006D2D00086D2D00086D2D00086D2D0008F8
:100080006D2D00086D2D00086D2D00086D2D0008E8
:1000900000000000412C00086D2D00086D2D0008A7
:1000A0006D2D00086D2D00086D2D00086D2D0008C8
:0C00B0006D2D00086D2D00080000000000
:1000BC0010B5064C2378002B07D1054B002B02D032
:1000CC00044800E000BF0123237010BDE4010020B0
:1000DC000000000038790008044B10B5002B03D049
:1000EC000349044800E000BF10BDC04600000000FA
:1000FC00E8010020387900080023C25C0133002A93
:10010C00FBD1581E7047000002B4714649084900E3
:10011C00095C49008E4402BC7047C04603B471466A
:10012C00490840004900095E49008E4403BC7047F1
:10013C00002243088B4274D303098B425FD3030A1A
:10014C008B4244D3030B8B4228D3030C8B420DD32D
:10015C00FF22090212BA030C8B4202D312120902BB
:10016C0065D0030B8B4219D300E0090AC30B8B42F9
:10017C0001D3CB03C01A5241830B8B4201D38B03A7
:10018C00C01A5241430B8B4201D34B03C01A52414C
:10019C00030B8B4201D30B03C01A5241C30A8B428F
:1001AC0001D3CB02C01A5241830A8B4201D38B027A
:1001BC00C01A5241430A8B4201D34B02C01A52411E
:1001CC00030A8B4201D30B02C01A5241CDD2C30990
:1001DC008B4201D3CB01C01A524183098B4201D30C
:1001EC008B01C01A524143098B4201D34B01C01AF7
:1001FC00524103098B4201D30B01C01A5241C3086F
:10020C008B4201D3CB00C01A524183088B4201D3DD
:10021C008B00C01A524143088B4201D34B00C01AC9
:10022C005241411A00D20146524110467047FFE735
:10023C0001B5002000F0F0F802BDC0460029F7D04F
:10024C0076E7704703460B437FD4002243088B426A
:10025C0074D303098B425FD3030A8B4244D3030B41
:10026C008B4228D3030C8B420DD3FF22090212BA06
:10027C00030C8B4202D31212090265D0030B8B4282
:10028C0019D300E0090AC30B8B4201D3CB03C01A6C
:10029C005241830B8B4201D38B03C01A5241430B47
:1002AC008B4201D34B03C01A5241030B8B4201D337
:1002BC000B03C01A5241C30A8B4201D3CB02C01AA2
:1002CC005241830A8B4201D38B02C01A5241430A1A
:1002DC008B4201D34B02C01A5241030A8B4201D309
:1002EC000B02C01A5241CDD2C3098B4201D3CB01B0
:1002FC00C01A524183098B4201D38B01C01A52415F
:10030C0043098B4201D34B01C01A524103098B4262
:10031C0001D30B01C01A5241C3088B4201D3CB004D
:10032C00C01A524183088B4201D38B00C01A524130
:10033C0043088B4201D34B00C01A5241411A00D2E0
:10034C0001465241104670475DE0CA0F00D0494249
:10035C00031000D34042534000229C4603098B42B9
:10036C002DD3030A8B4212D3FC22890112BA030A41
:10037C008B420CD3890192118B4208D389019211C3
:10038C008B4204D389013AD0921100E08909C30948
:10039C008B4201D3CB01C01A524183098B4201D34A
:1003AC008B01C01A524143098B4201D34B01C01A35
:1003BC00524103098B4201D30B01C01A5241C308AD
:1003CC008B4201D3CB00C01A524183088B4201D31C
:1003DC008B00C01A5241D9D243088B4201D34B0037
:1003EC00C01A5241411A00D20146634652415B1079
:1003FC00104601D34042002B00D54942704763465A
:10040C005B1000D3404201B5002000F005F802BD9E
:10041C000029F8D016E770477047C0468446101C78
:10042C0062468C46191C634600E0C0461FB501F0BD
:10043C0089F8002801D40021C8421FBD10B500F076
:10044C00D3FF4042013010BD10B501F07BF80028FD
:10045C0001DB002010BD012010BDC04610B501F01D
:10046C0071F8002801DD002010BD012010BDC04630
:10047C0010B500F0F5FF002801DC002010BD0120B4
:10048C0010BDC04610B500F0EBFF002801DA0020CB
:10049C0010BD012010BDC046F8B557464E46454626
:1004AC00DE464402E0B545000F1C640A2D0EC60F53
:1004BC00002D47D0FF2D4DD0002380209A469B461F
:1004CC00E400C00404437F3D7802430A99467A0055
:1004DC00FB0F9846120E4B4644D0FF2A11D0D80081
:1004EC008023DB040343994600207F3AAD1847462E
:1004FC0053467740691C0F2B3FD8724A9B00D35848
:10050C009F46FF35002B00D079E0524602231A4358
:10051C0092460220EBE747464C4683465B46022B4D
:10052C0028D0032B00D1C6E0012B4FD10020002492
:10053C00C005FF0720433843F0BCBB46B246A94672
:10054C00A046F8BD002C71D104239A46033B00252C
:10055C009B46B9E7002C63D108239A46063BFF253E
:10056C009B46B1E7002B50D1524601331A439246B9
:10057C000120BCE7FF200024DAE74846260C2404BF
:10058C00220C0404240C4B4620001B0C50437443D7
:10059C005A435E431219030C9B189C4203D98022C8
:1005AC0052029446664400041A04000C121894017A
:1005BC00601E84411B0C920E9B1914439B011C431F
:1005CC001B0172D50120630804401C4308007F30D6
:1005DC0000283CDD630704D00F232340042B00D0FC
:1005EC000434230103D580310800374B1C40FE280E
:1005FC00C0DCA401640AC0B29AE737008EE7524609
:10060C0003231A439246032071E7484601F082FF08
:10061C004A46431F9A402D1A91460020763D66E7C4
:10062C000C239A46093BFF259B464DE7200001F021
:10063C0071FF7625431F9C4000236D429A469B46D2
:10064C002D1A41E780240027FF20E40370E70123E3
:10065C001B1A1B2B00DD69E79E3120008C40D84013
:10066C00631E9C410443630704D00F232340042BD7
:10067C0000D0043463011AD50120002458E78020EF
:10068C00C003044209D04B46034206D14C460443F6
:10069C0064024746FF20640A4AE78020C0030443F3
:1006AC0064023700FF20640A42E729008EE7A401A8
:1006BC000020640A3CE78020C00304436402FF204E
:1006CC00640A35E768790008FFFFFFF770B5051E6F
:1006DC000ED001F01FFF9E2304001B1A962B0CDC7E
:1006EC00082801DD083CA5406D026D0AD8B201E076
:1006FC0000200025C005284370BD992B09DD0200A0
:10070C0029001B3291404A1E91410522121AD540F4
:10071C000D43052C01DD621F95402900084E314028
:10072C006A0709D00F202840042805D004314A015B
:10073C0002D59F2331401B1B89014D0AD8B2D9E742
:10074C00FFFFFFFBF0B54F46D64646460D000100B5
:10075C001800C0B517002B035A0A4B0F1343CA00DD
:10076C00914602036E004100520AEC0F7D0F1543B7
:10077C00760D490DC00F8246AC46FF00721A8442BA
:10078C0000D198E0002A00DC81E0002900D1B6E01D
:10079C00C9498E4200D172E1802128000904084326
:1007AC008446382A00DD5EE11F2A00DDEEE12020C0
:1007BC0039006546801A8740D14085400D43390089
:1007CC004F1EB9416746D7402943DB1B4A46551A91
:1007DC00A945894149425B1A984643461B0200D4FD
:1007EC00CCE043465B025B0A98464346002B00D1A3
:1007FC002CE1404601F08EFE010008392022280031
:10080C004346521A8B40D0408D4003438E4200DD4C
:10081C0017E18E1B721C1F2A00DDA7E12021180096
:10082C002E00891A8D408840D640D340691E8D41D8
:10083C0030439846002605436B0709D00F232B4005
:10084C00042B05D02B1DAB42AD416D42A8441D00BD
:10085C0043461B0200D494E0974B721C9A4200D181
:10086C009DE04146954BED0819400B005205490798
:10087C005B0229431B0B520D12051343E407234360
:10088C0008001900E0BCBA46B146A846F0BD002AE3
:10089C0043D08A1B002E00D02AE14C461C4300D1C9
:1008AC00D1E1541E012A00D11FE2834DAA4200D18E
:1008BC0072E2220023E1002A00DC98E0002942D0F9
:1008CC007D498E4200D1DAE08021280009040843DA
:1008DC008446382A00DD29E11F2A00DC87E111005B
:1008EC0065462039CD40202A04D040206146821A2A
:1008FC0091400F4339004F1EB9410D431BE12900B4
:10090C00394300D1B5E0511E012A00D1ABE16A4850
:10091C00824200D1B2E10A0043E76949751C0D42DD
:10092C0000D0CFE0002E00D093E14946194300D10E
:10093C00D1E16146394300D0E3E149465807C90883
:10094C000143DB0826E02900394300D191E0511E18
:10095C00012A05D05848824200D18FE10A00B8E73D
:10096C003D004D444D458941634498464942884475
:10097C00434602261B0200D5EBE0013E6B0700D07C
:10098C005CE74346E9085A0711433200DB084A4842
:10099C00824221D01B0352051B0B520D6CE7002326
:1009AC00002169E72A003A4369D04A465807D10822
:1009BC00DA0880231B0308431A4207D02900ED08EC
:1009CC001D4203D12A00FF0848073843430FC100DA
:1009DC005B07C908194313000A001A4300D113E23C
:1009EC008022120313431B03334A1B0B44E7002AD8
:1009FC004BD08A1B002E00D1E7E02F48814200D15A
:100A0C0095E1802000040343382A00DD43E11F2ACE
:100A1C0000DDDBE120201D004E46801A8540D640CB
:100A2C0035434E4686403000D340461EB0419C4470
:100A3C000543ED19BD429B415B42634498460E0051
:100A4C007FE01E4A761A13409846F5E6280001F01E
:100A5C0061FD010018311F2900DCCFE62B0008389E
:100A6C0083400025D2E662463A4311004F1EB9413D
:100A7C00ACE649465807C9080143DB0887E74946F5
:100A8C005A07C9081143DB08A6E70D49701C084238
:100A9C0000D0BBE0002E00D014E14946194300D130
:100AAC0075E12900394300D07EE149465807C90851
:100ABC000143DB086EE7C046FF070000FFFF7FFF26
:100ACC00FE0700004946CD1B6146581AA9458941CD
:100ADC004942884601004046091A8846090200D559
:100AEC00A6E04146294300D07FE60023002451E7CD
:100AFC00C74CA14200D1C7E0802424042343382AE8
:100B0C0054DC1F2A00DDCCE020244846A41A1D002A
:100B1C004E46A040D640A5400400D3406246354323
:100B2C00661EB441D31A9C46254344E062463A43C0
:100B3C0015006F1EBD414D444D45894149428846C3
:100B4C00984443461B0200D418E7B14B01369E4231
:100B5C0049D04246AF4B01211A4013006A080D40A0
:100B6C001543D9075B0898460D4365E618001F3EF0
:100B7C00F040202A03D040218A1A93401D43691E5D
:100B8C008D410023002698460543F7E61100654683
:100B9C002039CD40202A04D040206146821A914051
:100BAC000F4339004F1EB94129430FE64A46134300
:100BBC001D006B1E9D417D1BAF429B4162465B42FB
:100BCC00D31A984654460E0007E64846184300D1FF
:100BDC00B3E0501E012A00D10DE18D4DAA4200D187
:100BEC00A5E0020010E732000023002144E620219A
:100BFC003800891A65468F408D40D040791E8F4150
:100C0C0005433D436746D740DB1994E7804A904241
:100C1C0000D1ECE0390049444945924163445242C9
:100C2C009B18DD0749085B08984606000D43A5E6AE
:100C3C004A46BD1AAF42894162464942D31A5B1AF1
:100C4C0098465446D1E56C07F9082143EB0804009B
:100C5C009DE64A461A4375D16146394314D1802327
:100C6C0000241B03BCE64A46D51BA94589416246B4
:100C7C0049429B1A5B1A98460126AEE54A46D108B2
:100C8C005A071143DB08A7E66346F9085A0754468E
:100C9C001143DB08A0E64A4613431D006B1E9D4121
:100CAC00C7E614001E00203CE640202A05D0402454
:100CBC00A21A93404A461A4391464D466B1E9D41DB
:100CCC00354378E74A461A4300D06BE66B07F908C0
:100CDC001943EB0880E66146394354D06346F90862
:100CEC005C072143DB08040054E64A46BD1AAF42B8
:100CFC00894162464942D31A5B1A98460400012680
:100D0C006BE54A46D51BA9458941624649429A1A68
:100D1C00521A9046120232D54A46BD1AAF42894148
:100D2C0062464942D31A5B1A9846040084E563462E
:100D3C00F9085A071143DB084EE6F9086807014326
:100D4C00EB0824E662463A4300D198E64A46D108BD
:100D5C005A071143DA0880231B031A4208D0604655
:100D6C00C5081D4204D154462A00F908430719430B
:100D7C004B0FC9005B07C908194313002CE6414609
:100D8C00294300D0FAE500230A00002402E66B0791
:100D9C00F9081943EB08FDE56346F9085B071943AD
:100DAC0063460400DB0817E63D004D4463444D45A3
:100DBC00894198464942884443461B0200D4DDE5EC
:100DCC004246144B01261A409046D7E510001E00EF
:100DDC002038C640202A05D04020821A93404A462B
:100DEC001A4391464D466B1E9D41354321E6020048
:100DFC000023002140E54A46D519BD428941634490
:100E0C00984649428844B3E50021014A0B0033E57A
:100E1C00FF070000FFFF7FFFF0B557464E464546E3
:100E2C00DE46E0B5814605000C03480092461F00E3
:100E3C0085B0240B400DCE0F002859D0874B98421B
:100E4C0000D198E06B0FE4001C4380231B04234368
:100E5C009846834BED009B460023994683440093B0
:100E6C003C037B005046240B5B0DFF0F002B67D01F
:100E7C007A4A934218D07A49420F8C46E40059467C
:100E8C001443802263441204CB1A14439B46C200C1
:100E9C00002033007B409A464B460F2B00D9EFE0E5
:100EAC0070499B00CB589F466F4B52469C46224341
:100EBC00E344002A00D095E04946022319438946B1
:100ECC0000240220E5E700230024002552461B05E0
:100EDC002343D20713432800190005B0F0BCBB46CE
:100EEC00B246A946A046F0BD002400255B4BEDE7B9
:100EFC004B462343984600D189E0002C00D1E0E119
:100F0C00200001F007FB010002000B391D235B1AC6
:100F1C0049461000D940083884400B004D46234305
:100F2C009846854051483C03831A9B4600239946BA
:100F3C0000937B005046240B5B0DFF0F002B97D1C9
:100F4C005246224355D0002C00D1CAE1200001F0BA
:100F5C00E1FA02000B3A1D2301009B1A5246083994
:100F6C00DA408C40144352468A40414B58449B46CD
:100F7C00834400208DE74B462343984640D10823F9
:100F8C009946063B00258346009369E7B246009BD1
:100F9C00022BA9D0032B00D111E2012B93D0354A9F
:100FAC005A44002A00DC3CE16B0700D0A7E1ED08B5
:100FBC004346DB0106D542462F4B1A409046802211
:100FCC00D2005A442D4B9A428EDC434652055807A8
:100FDC005C020543240B530D78E7BA46A046150076
:100FEC000090D4E74A4603231A4391460320524605
:100FFC004FE749460123194389460024012048E75D
:10100C000C239946093BA0468346009328E704230A
:10101C00994600239B4601330025009320E70023CB
:10102C0080249A4600250D4B24034FE7802341462C
:10103C001B03194208D01C4206D11C432403BA4698
:10104C001500064B240B41E78024434624031C4324
:10105C002403B246014B240B38E7C046FF070000BF
:10106C0001FCFFFFA879000801F8FFFF0DFCFFFF52
:10107C00F3030000FF030000FFFFFFFEFE0700006C
:10108C00444500D216E100D111E101235B429C469C
:10109C002E0040460025E3442302140E1C431B0C77
:1010AC00994623041F0C1202494600920197FFF740
:1010BC00C5F802007A430B04310C804619438A426E
:1010CC000BD901235B429C460919E0448C4204D89D
:1010DC008A4202D9831E98460919881A4946FFF795
:1010EC00ADF809048C4631046646019A090C42435A
:1010FC00030031438A4204D90919013B8C4200D8C0
:10110C0011E1891A4246009E12041A43330C1F0047
:10111C00100C9046029313043204160C32001B0C74
:10112C005A4303967B4346437843170CBC469B19A2
:10113C0063449E4203D980267602B44660441E0C5A
:10114C00301816041B04360C9E19814200D29CE008
:10115C0000D197E0AE1B091AB54280414042081AF3
:10116C00844200D111E14946FFF768F8019A0B045B
:10117C004243310C050019438A4207D90919013D34
:10118C008C4203D88A4201D9851E0919881A49460E
:10119C00FFF754F809048C4631046646019A090C91
:1011AC004243030031438A4207D90919013B8C425F
:1011BC0003D88A4201D9831E0919039E891A320069
:1011CC002D041D43029F2B041B0C5A437B439C464E
:1011DC00280C4643130CB444634478439E4203D911
:1011EC0080267602B44660441E0C12041B04120CBA
:1011FC0030189B18814206D302D001231D43CEE642
:10120C00002B00D1CBE661186E1EA14200D2A4E0E7
:10121C00814200D2C9E000D1D9E03500EDE70125CB
:10122C006D420121891A382900DD4CE61F2900DCAA
:10123C007FE01F235B429A1A4346D340202904D0F7
:10124C004446654A5A44944025436A1E95410722F8
:10125C002B43150000241D401A4200D1A1E00F229F
:10126C0000241A40042A00D198E01A1D9A429B418E
:10127C005B42E4181300220200D48FE00123002407
:10128C00002523E6B54200D364E743465A1E009B73
:10129C009C4665441F009D429B415B421B19C9182B
:1012AC008C423AD2884263D860D0904652E7AA4228
:1012BC0000D9EAE64346DE0758086B081E43ED07E3
:1012CC00EAE6484601F026F9010002001531203209
:1012DC001C2900DC1AE64B4608388340002598464A
:1012EC0020E601F017F903001A00153220301C2AF1
:1012FC0000DC30E65446083B00229C4035E60F23C8
:10130C002B40042B00D152E605235B42AB429B41A0
:10131C0004355B42ED0898444AE68C42C5D1AF4295
:10132C00C0D9904616E78A4200D8EAE6831E09190E
:10133C00E7E62A4A28005A44434695409340C84061
:10134C006A1E9541444603432B43CC405A0792D026
:10135C000F221A40042A88D18DE73500814200D033
:10136C004BE7009A934200D047E718E6AE429CD96F
:10137C0002235B429C46009BE0449C4665449D4294
:10138C009B415B421B19C918E4E6154A5A44002AD2
:10139C0000DC44E701230025984409E66507640254
:1013AC00240BDB081D43002390E5009E023D7200D8
:1013BC00B242BF417F423C1909190092CEE780240A
:1013CC00434624031C432403064B240B7EE5009A5E
:1013DC009A42EAD33500C4E73E0400001E04000024
:1013EC00FF030000FF070000F0B54F464646D64607
:1013FC00944691461A03120B184DC0B54C000F03BE
:10140C0092465A00060080463F0B0120640DC90F1E
:10141C00520DDB0FAC420AD0AA4203D0944201D148
:10142C0057450DD0E0BCBA46B146A846F0BD3D00CC
:10143C003543F7D1A242F5D1524665462A43F1D144
:10144C000120C845EED1994206D0002CEAD13E438A
:10145C003000461EB041E5E70020E3E7FF0700003F
:10146C00F0B54E4645465746DE4604001800E0B53A
:10147C0016001B031B0B324D0F034A009946430009
:10148C00A446B0463F0B520DC90F5B0DC00FAA42CC
:10149C0029D0AB4218D0002A2AD13C43A34665423E
:1014AC006541002B02D14C46264327D0002D15D187
:1014BC00814228D00220013908400138F0BCBB46DB
:1014CC00B246A946A046F0BD4D462E432FD1002A68
:1014DC00EED13C4365426541002DE9D00028EDD1A9
:1014EC0001204042EAE73D00254320D19342EBD056
:1014FC00002BDDD14C462643DAD1DBE75B460020DE
:10150C00002BDBD0D6E79A420ADCE7DB4F45D1D87B
:10151C0010D000204F45D1D20029E1D00800CDE7F2
:10152C00434258410223404218400138C6E702208A
:10153C004042C3E7C445BDD80020C445BED2EBE74A
:10154C00FF070000F0B54E4645465746DE46040000
:10155C001800E0B516001B031B0B314D0F034A009E
:10156C0099464300A446B0463F0B520DC90F5B0D84
:10157C00C00FAA4211D0AB4214D0002A2FD13C4349
:10158C00A34665426541002B14D14C46264311D12C
:10159C005B460020002B17D010E03D00254312D1F4
:1015AC0093421CD14D462E430DD1002A04D13C430D
:1015BC0065426541002D0DD1814216D002200139C2
:1015CC000840013800E00220F0BCBB46B246A946F8
:1015DC00A046F0BD0028F7D101204042F4E7002BD3
:1015EC00EAD14C462643E7D1E8E79A4206DD43426E
:1015FC0058410223404218400138E5E79A42E9DBA2
:10160C004F45DBD806D000204F45DDD20029E3D072
:10161C000800D9E7C445D1D80020C445D4D2F5E799
:10162C00FF070000F0B557464E464546DE46E0B58E
:10163C0098460C034B000600924687B0240B5B0DBA
:10164C00CF0F002B6CD0DD4A934200D186E0420FC5
:10165C00E4001443802212041443D94AC500944672
:10166C0063440093002399469B46434642461E031F
:10167C00D20F5B0050469046360B5B0D00D178E0E4
:10168C00CE4A93421DD0CE49420F8C4600996344FA
:10169C00F6008C46164380229C4412046346164383
:1016AC00C200002000930099434601318C46494604
:1016BC007B4001930F2900D97EE0C24B8900595819
:1016CC008F465246009B324300D056E1BB49002660
:1016DC008C466344494600930223194389460220F1
:1016EC00E1E7434601933400150083465B46022B29
:1016FC005ED0032B00D1F3E1012B00D018E10022C6
:10170C0000240025019B12052243DB071A43280005
:10171C00110007B0F0BCBB46B246A946A046F0BDCE
:10172C002500054300D141E1002C00D1ADE12000A2
:10173C0000F0F0FE010002000B391D2310005B1AB3
:10174C003100350008388440D94085400C439E4810
:10175C00831A0093002399469B4686E70500254390
:10176C0000D01CE1082200930223002491469B46E2
:10177C007BE75246324300D10AE1002E00D176E1DC
:10178C00300000F0C7FE02000B3A1D2301009B1A2B
:10179C0052460839DA408E40164352468A40009B26
:1017AC008949181A03008C466344002000937AE799
:1017BC0000240025814AA5E72F0C2D042D0C2B00AD
:1017CC00110C1204120C53439846130028007B434F
:1017DC00994648434844834640460B00000C8246D9
:1017EC0058467B4350440293814506D99A46802340
:1017FC005B029946CA4453460293030C9B464346EC
:10180C001B0400041B0C9846030043440493330C44
:10181C0099462B003604360C7343984633007B43B1
:10182C009A464B465D435F4343465544180C40195A
:10183C00824503D980235B029A465744050CEB1969
:10184C00059343461D042D0C00044019250C24045B
:10185C00240C270057436A4390462A003B0C9A46B7
:10186C004A436143414451448344884503D980230E
:10187C005B02984642443F040B0C3F0C0904C91907
:10188C00270098464B4677435C436E435D433B0CC5
:10189C009946A4194C4442440395A64204D980238A
:1018AC005B02984645440395029B3F045B441E0033
:1018BC008342804123049846059B3F0C474498463D
:1018CC0076188E428941474440423D18A8469346BB
:1018DC0049428A46C3449F42BF4180458041039B95
:1018EC00DA449846534640427F420743240C9345C2
:1018FC0092418A4589413F19DC0D049B75021D43B9
:10190C00681E85415346524249420A43BF18474418
:10191C00F60D7F0235435A023C431543FB0100D4BC
:10192C00C1E001216A080D401543E2071543640824
:10193C0026496144002956DD6B0709D00F222A4045
:10194C00042A05D02A1DAA42AD416D426419150026
:10195C00E30104D580211E4AC900144061441D4A8C
:10196C00914200DD24E76207ED0864024905154346
:10197C00240B4A0DC6E60197B8E6104A032094469C
:10198C0063444A46009303231A43914652468AE61F
:10199C0049460123194389460026012083E60C227F
:1019AC0000930323050091469B465EE6042399466B
:1019BC0000230093013300249B4656E6FF070000EA
:1019CC0001FCFFFFE87900080DFCFFFFFF0300009E
:1019DC00FFFFFFFEFE070000002380240025444A81
:1019EC00019324038EE60120401A382800DD86E698
:1019FC001F285BDD1F2223005242511ACB401900D5
:101A0C00202803D03B4A6244944025436A1E9541EA
:101A1C002A000A4307210D000024154011425BD017
:101A2C000F2100241140042953D0111D91429241E1
:101A3C005242A4180A0023024BD50122002400258F
:101A4C0060E680231B031C4209D01E4207D133439E
:101A5C001C0343461500240B254A019352E68022B1
:101A6C00120314432403224A240B01974AE600F084
:101A7C0051FD03001A00153220301C2A00DC84E6CC
:101A8C005646083B00229E4089E600F043FD0100CB
:101A9C000200153120321C2900DC4EE634000838D7
:101AAC000025844053E6009B9C4641E712492200E6
:101ABC0061442E008D408A40C640691E8D413243E0
:101ACC002A43C4405307B6D00F2111400429ACD18E
:101ADC00B1E765076402240BD2081543002211E616
:101AEC008022120314432403014A240B0AE6C04645
:101AFC00FF0700003E0400001E040000F8B5574626
:101B0C004E464546DE460400E0B51F0010000B03B0
:101B1C00620F4E00CD0F5B0A39031343490AE200F2
:101B2C00440F2143C24C91469246C0007A00804635
:101B3C00760D520DFF0FA24200D1B4E00124674094
:101B4C00BB46BD4200D188E0B41AA446002C00DC90
:101B5C00B2E0002A00D1C5E0B54A964200D18BE232
:101B6C008022120411436246382A00DDA1E11F2AAB
:101B7C0000DD16E220270C00BF1ABC400200A04674
:101B8C006446B840E240444614430200501E824171
:101B9C006046C14022435B1A49468C1AA1459241CA
:101BAC0052429B1A984643461B0200D417E1434607
:101BBC005B025B0A98464346002B00D16CE1404621
:101BCC0000F0A8FC0200083A202120004346891AA4
:101BDC009340C84094400343964200DD57E1961B66
:101BEC00711C1F2900DDCBE1202218002600521A9F
:101BFC0094409040CE40CB40621E94413043984676
:101C0C0000260443630709D00F232340042B05D07F
:101C1C00231DA342A4416442A0441C0043461B0262
:101C2C0000D4DFE0824B01369E4200D1FBE04246FD
:101C3C00804BE4081A401300710552075B022243E3
:101C4C001B0B490D0905ED07194329431000F0BC86
:101C5C00BB46B246A946A046F8BDB41AA446002C11
:101C6C0058DD002A00D19EE0714A964200D13BE13A
:101C7C008022120411436246382A00DDC1E01F2A7B
:101C8C0000DCBBE10C00203AD44022006446202C3E
:101C9C0004D040273F1BB940084380464446611E90
:101CAC008C411443B1E00C0004432AD0BB46BD4226
:101CBC002DD0614CA446B4446446002C5CD0941BDB
:101CCC00A446002E00D015E14D461D4300D1C3E1C2
:101CDC00651E012C00D10CE2554EB44200D1F8E146
:101CEC00AC460EE10A00024300D136E12200013A73
:101CFC00012C00D1C6E14E4CA44500D1F4E0944631
:101D0C0031E701246740BB46BD4200D01CE74A4C7A
:101D1C00A446B4446446002C00D1CFE0941BA446E6
:101D2C00002E00D15CE1424EB24200D1ECE18026A3
:101D3C00360433436446382C00DDB3E11F2C00DD40
:101D4C0038E22026361B1C00B4404F46A0466446A1
:101D5C00E74044463C434F46B7403E00771EBE41E9
:101D6C0034436646F340C918241884429B415B42B5
:101D7C009846160088444EE0304A741C144200D039
:101D8C00D6E04A461A43002E00D05BE1002A00D16F
:101D9C00A5E10A00024300D0BBE14A465907D2082C
:101DAC000A43DB0827E00A00024300D174E1220059
:101DBC00013A012C05D01E4CA44500D194E0944668
:101DCC0059E74844484592415B18984604005242F2
:101DDC009044434602261B0200D5C4E0013E630733
:101DEC0000D011E74346B4465907E2080A43DB0822
:101DFC000F498C4540D061461B0349051B0B490D0F
:101E0C0020E701430C00611E8C414C444C4592412F
:101E1C0052429046984443461B02E0D5044B01368F
:101E2C009E4200D09FE03100002300220AE7C0460A
:101E3C00FF070000FFFF7FFF01F8FFFFFE07000018
:101E4C00002A00D160E10A0002434DD04A465C07EB
:101E5C00D20822438024DB082403234207D0CE0877
:101E6C00264204D15D463300C20849070A43510F8C
:101E7C00D200D20849070A431100194300D1C8E126
:101E8C00802109030B431B03D5491B0BDAE6D5490B
:101E9C00B61A0B409846B5E6200000F03BFB02005A
:101EAC0018321F2A00DC8FE62300083883400024F8
:101EBC0092E608430200501E82416DE6CA4C721C29
:101ECC00224200D0ADE04A461A43002EB8D1002A77
:101EDC0000D158E10A00024300D059E14A465907A3
:101EEC00D2080A43DB0886E74A465907D2080A4358
:101EFC00DB08C1E7BA4DAA4200D11EE180252D04B2
:101F0C002B436446382C5DDC1F2C00DDD0E02025F3
:101F1C0067462D1B4E461C00FE40AC4034434E46DB
:101F2C00AE403500FB406E1EB541C91A2C434EE045
:101F3C004A46141AA1459241524290465F1A3A0001
:101F4C004746D21B9046120200D58BE042462243F4
:101F5C0000D030E6002300254DE74A465907D20849
:101F6C000A43DB0844E742469E4B61081A401300C3
:101F7C00012214400C43DA075B089846144341E6EF
:101F8C001A001F3EF2401600202903D04022511A9D
:101F9C008B401C43621E9441002334439846002618
:101FAC001DE70C00203AD44022006446202C04D0BB
:101FBC0040273F1BB940084380464446611E8C4174
:101FCC002243E9E54C4623431C00631E9C41041B41
:101FDC00A0429B415B42CB1A98465D461600E2E557
:101FEC004E461E4300D1AEE0661E012C00D1FDE032
:101FFC007B4FBC4200D107E1B4469BE664462022ED
:10200C00121B0C00944007009040A0466446421EF0
:10201C0090416246E7404446D1403C4304435B1840
:10202C00F3E66F4CA24200D1D5E048445B1848451A
:10203C00894149425B18DC0740085B08984616004A
:10204C000443CCE6002A00D082E00A00024340D1CF
:10205C00802300251B0313E74B07C2081A435D4678
:10206C00CB08C5E64A46841AA0429241CB1A52428A
:10207C009B1A98465D469EE54A465907D2080A4384
:10208C00DB08F9E64A46141AA14592415B1A524202
:10209C009B1A9846012686E54A465907D2080A43F8
:1020AC00DB08A5E64C4623431C00631E9C415BE603
:1020BC0065461E00203DEE40202C05D040252D1BF2
:1020CC00AB404C461C43A2465446631E9C413443D1
:1020DC007DE74B07C2081A435D46CB08CCE60A00E5
:1020EC00024300D136E74B07C2081A435D46CB08C2
:1020FC0081E64A46841AA0429241CB1A52429B1A5C
:10210C0098465D4601264EE54B07C2081A43CB089C
:10211C00B2E64A46141AA14592415F1A5242BA1AC3
:10212C00904612026BD54A46841AA0429241CB1AB1
:10213C0052429B1A98465D4664E54B07C2081A4307
:10214C005D46CB0898E64B07C2081A43CB084FE60E
:10215C000A00024390D04A465C07D20814438022FE
:10216C00DB081203134208D0CE08164205D1C00872
:10217C004907084304005D463300610FE20049073C
:10218C00D2080A4378E64B07C2081A43CB0832E65A
:10219C0048445B1848459241984652429044434605
:1021AC0004001B0200D41AE642460E4B01261A40CC
:1021BC00904614E666461F00203EF740202C05D0C2
:1021CC004026361BB3404C461C43A2465446631E65
:1021DC009C413C43C8E511000023002232E5C04677
:1021EC00FF070000FFFF7FFFFE0700004A461418A0
:1021FC00844292415B18984652429044E9E542462B
:10220C00224300D1A6E6EAE54B07C2081A43CB08E5
:10221C0032E600220149130014E5C046FF07000016
:10222C0070B505000C480C03160049001A035B003E
:10223C00240B490D120B5B0D814208D0064900207E
:10224C008B4203D132431000421E904170BD0120DD
:10225C002C43FBD1F2E7C046FF0700000A0030B563
:10226C00134C530009030500090B00205B0DD20F22
:10227C00A34204DD0F48834202DD0F4BD01830BD62
:10228C008020400301430D48C01A1F2808DD0C486C
:10229C00C31AD9400B005842002AF0D11800EEE7BF
:1022AC00084CC540A446634499400B002B43F2E70D
:1022BC00FE0300001D040000FFFFFF7F330400003D
:1022CC0013040000EDFBFFFF70B5002816D0C317F8
:1022DC00C5185D40C40F280000F01CF9114A121AF1
:1022EC000A2816DC03002E0015339E400B23181A07
:1022FC00C54053052D032D0B5B0D03E0002400237B
:10230C00002500261B052B43E4072343300019004E
:10231C0070BD0B38854053052D0300262D0B5B0D2E
:10232C00F0E7C0461E04000010B5041E10D000F0EB
:10233C00F1F80F4B1B1A0A2811DC0B222100121A80
:10234C00D14015300A035B058440120B5B0D01E094
:10235C00002300221B0513432000190010BD22008E
:10236C000B3882405B0512030024120B5B0DF1E766
:10237C001E04000070B543004602C40FFE201B0E65
:10238C00591C750A08420CD0E022920094466D0745
:10239C00360B63441B053343E40723432800190021
:1023AC0070BD002B14D1002D1BD0280000F0B2F80A
:1023BC000A281CDC0B232A001B1ADA4003001533F5
:1023CC009D400E4B12031B1A5B05160B5B0DE1E7D0
:1023DC00002D09D0320B80263603094B6D071643AE
:1023EC00D8E700230026D5E70026054BD2E70300EB
:1023FC002A000B3B9A400025E3E7C0468903000006
:10240C00FF07000002004B00F0B508035B0D3D4ECA
:10241C00CC0F400A510F5F1C0843D50037420AD03D
:10242C0039495E18FE2E16DDFF230021DB050B4318
:10243C00E0071843F0BD002B06D1284327D0052117
:10244C008901490ADBB2F1E70543EDD08021C903CC
:10245C00FF230143EAE7002E1CDD920111004A1E06
:10246C009141C0006D0F014329434B0748D00F2306
:10247C000B40042B00D004318023DB040B403FD0F5
:10248C00721CFE2ED0D08901490AD3B2CEE70023AC
:10249C000021CBE73200173222DB80211E220904F7
:1024AC000843921B1F2A1DDD022149428E1B01008D
:1024BC00F1400E00202A04D0144A944663449840FC
:1024CC00054329004D1EA941314300264B07CED1AF
:1024DC0080200B00C004012203400142D3D1AFE79E
:1024EC000023ACE70A498C4629006344D1409D4047
:1024FC000A00290098404D1EA94101431143E4E70D
:10250C0033009DE7FE07000080FCFFFFA2FCFFFFED
:10251C0082FCFFFF1C2101231B04984201D3000CF9
:10252C0010391B0A984201D3000A08391B0998423A
:10253C0001D30009043902A2105C40187047C04650
:10254C000403020201010101000000000000000070
:10255C0010B59CB0382200210EA802F09AFA102275
:10256C000021684602F095FA2822002104A802F006
:10257C0090FA8020800001F0D3FC80235B00119343
:10258C000023129317930833189380239B021993FB
:10259C0080239B041A938023022440229B050EA8BF
:1025AC000E941392159416941B9301F0E5FC0028DD
:1025BC0001D072B6FEE70723029003902100684613
:1025CC000093019401F042FF002801D072B6FEE79F
:1025DC0080230B90DB0104A8049301F0E5FF002895
:1025EC0001D072B6FEE71CB010BD0000F0B502279A
:1025FC00012587B000F0DEFBFFF7AAFF7F4B092017
:10260C005A6B3A435A635A6B3A400192019A5A6B8D
:10261C002A435A635A6B2A400292029A9A6B2A43B3
:10262C009A6300229B6B11002B400093009B00F0DF
:10263C00DFFF092001F006F8714C724B200023607B
:10264C00714BE56063600023A36023616361A36148
:10265C00E361236201F00AFB011E01D072B6FEE7B2
:10266C00200001F013FC011E01D072B6FEE7200021
:10267C0001F032FC002801D072B6FEE7634E644BC9
:10268C00B060336064237360624B3061F36080230D
:10269C0070613000B36102F09BF9051E01D072B677
:1026AC00FEE701000C2203A802F0F3F95A4C5B4B35
:1026BC002000236080231B06636080239B0323611F
:1026CC0004236361631CDD7723002C331D70072307
:1026DC006363A363230025833C33A560E560A57683
:1026EC00E7616562A56225631D70E56400F09EFBE1
:1026FC00002801D072B6FEE7494B0490059003A95F
:10270C002000039300F01CFD002801D072B6FEE7F8
:10271C00444B20000393042303A9049300F010FD01
:10272C00002801D072B6FEE7200000F013FF00284D
:10273C00FAD100F0D9F800233B4A3C4F300013602B
:10274C003B60012602F012F8002000F0A9F80021ED
:10275C00080000F075F93868FFF70CFE344C0200E5
:10276C000B002000334902F017FE334D33006A682A
:10277C002968200000F050F90821002000F060F9D1
:10278C00294B1868FFF7F6FD02000B0020002B49BF
:10279C0002F002FE6A6833002968200000F03CF960
:1027AC001021002000F04CF9254B1868FFF7E2FDD2
:1027BC0002000B002000234902F0EEFD6A68330092
:1027CC002968200000F028F91821002000F038F9C1
:1027DC001D4B1868FFF7CEFD02000B0020001B49B3
:1027EC0002F0DAFD06CD3300200000F015F900F000
:1027FC0065F8642000F004FBA6E7C0460010024018
:10280C001803002000580040732160003C04002095
:10281C0000440140FFFF00006C0300200024014035
:10282C00000100200008002C880400201403002064
:10283C00D0030020287A000800000020327A00081B
:10284C00640300203D7A000868030020487A0008E1
:10285C0072B6FEE77FB5172201236A445B42107003
:10286C00029302330092782100220193024801F076
:10287C0053FA07B000BDC046180300201FB5012352
:10288C0089B25B420293019100904022782102337D
:10289C00024801F041FA05B000BDC0461803002003
:1028AC00421E904180220023034940425200C854EA
:1028BC0001339342FBD170470602002070B5B4245B
:1028CC00084D2000FFF7C6FF01341220FFF7C2FFAE
:1028DC00E4B228004021FFF7D1FF4035B82CF0D1ED
:1028EC0070BDC0460602002070B5172664248AB05D
:1028FC0004AD320028000E4902F0C2F80123002278
:10290C0078210294019600950A4801F005FA2000FE
:10291C0000F076FA0020FFF7C3FFFFF7CFFF00228D
:10292C00054B1A805A8001321A710AB070BDC0462C
:10293C0050790008180300200002002070B53F28D1
:10294C000FD81F290DD80724CB080C400121A1401A
:10295C009B01064E181835564BB2012A02D12B4357
:10296C00335470BD9D433554FBE7C046060200202E
:10297C00F0B5050089B0203D0493EBB2060006913A
:10298C0007925E2B44D806AB1B780293214B02991D
:10299C001A8800925218402A3ADC06AA52780392FE
:1029AC005C88A318202B33DC00235543E4B26D0064
:1029BC000193039B019A934208D8029A009B944678
:1029CC00144A63441380300009B0F0BD0027079B04
:1029DC005B5B0593029BBB4206D8019B0134013320
:1029EC0001930235E4B2E4E7009B8022F818059BC2
:1029FC001202BB40C0B2134205D0049A2100FFF76B
:102A0C009DFF0137E6E7049A53425A41D2B2F5E7EB
:102A1C000026D8E70002002037B504001D00009105
:102A2C0001922078002800D13EBD2B000099019A1C
:102A3C00FFF79EFF030020788342F5D10134F0E7C5
:102A4C00014B1880598070470002002001200A4B6E
:102A5C0082B0196C0143196480211A6C490502403B
:102A6C000092009ADA6B0A43DA63DB6B0B4001933A
:102A7C00019B02B07047C0460010024070B50500C3
:102A8C0088B01422002103A802F003F81D4B2A6819
:102A9C009A4234D180201C4B4003196C0026014310
:102AAC00196402211A6C02400192019A5A6B174860
:102ABC000A435A635B6B05960B400293029B81237E
:102ACC0003A903937E3B049300F018FF104C114BA9
:102ADC0020002360052363607B33236180336361B3
:102AEC008023DB00A660E660A361E661266200F04D
:102AFC0009FEB04201D0FFF7ABFE2C65A56208B011
:102B0C0070BDC0460024014000100240000400507B
:102B1C00E00300200800024010B5040088B0142225
:102B2C00002103A801F0B5FF134B22689A4220D173
:102B3C000123124CA020626B03A91A436263626BDF
:102B4C0005931A400192019AC0220023520103926C
:102B5C0012220693C00506330492079300F0CEFEB2
:102B6C008021E26BC9030A43E263E36B0B400293DF
:102B7C00029B08B010BDC046005800400010024037
:102B8C0007B50B4B02689A4211D18020094A80028A
:102B9C00116C01431164136C002203400193152046
:102BAC001100019B00F024FD152000F04BFD07BD2A
:102BBC000044014000100240FEE7FEE770477047FA
:102BCC0010B500F00BF910BD10B5134C2088FDF7B3
:102BDC007DFDE6218905FDF75FFCFFF7CBFB0F4A76
:102BEC000F4BFEF71FFDFFF70DFC0E4B18606088B6
:102BFC00FDF76CFDE6218905FDF74EFCFFF7BAFBEE
:102C0C00064A094BFEF70EFDFFF7FCFB074B18605D
:102C1C00074800F01FFE10BDDC03002066666666E8
:102C2C006666164014030020666606408804002081
:102C3C00E003002010B502220349044800F0FAFB1F
:102C4C00034801F0C9FD10BDDC0300206C0300201B
:102C5C003C0400200120704710B501F0E7FE16235C
:102C6C0003600120404210BD10B501F0DFFE1623B9
:102C7C000360FEE770B50E0014000025A54201DBD1
:102C8C00200070BD00E000BF70550135F6E770B54F
:102C9C000E0014000025A54201DB200070BD705D04
:102CAC0000E000BF0135F6E7012040427047802369
:102CBC009B0100204B60704701207047002070473B
:102CCC000B4A0C490300891A0B4A10B510680028EE
:102CDC0001D10A4810601068C3188B4206D901F064
:102CEC00A5FE0C2303600120404210BD1360FCE7DD
:102CFC00000400000020002008030020A004002095
:102D0C008022024B12059A607047C04600ED00E02D
:102D1C000D488546FFF7F4FF0C480D490D4A00237A
:102D2C0002E0D458C4500433C4188C42F9D30A4A74
:102D3C000A4C002301E013600432A242FBD301F0E1
:102D4C007BFEFFF753FCFEE7002000200000002074
:102D5C00E40100206C840008E4010020A0040020A1
:102D6C00FEE7000070B5104B05001978002901D161
:102D7C00012070BDFA208000FDF7DAF90B4B010041
:102D8C001868FDF7D5F900F069FC041EF0D1032D8D
:102D9C00EED8020001202900404200F029FC044B2F
:102DAC0020001D60E5E7C0460C0000200800002054
:102DBC00100000208023084A5B00116810B50B43FB
:102DCC0000201360FFF7CEFF041E03D1FFF73EFE79
:102DDC00200010BD0124FBE700200240034A044BF5
:102DEC0011681B785B1813607047C0468C04002078
:102DFC000C000020014B18687047C0468C04002062
:102E0C0070B50400FFF7F6FF0500631C02D0044BFD
:102E1C001B78E418FFF7EEFF401BA042FAD370BDFD
:102E2C000C00002080684007C00F70470023F0B5ED
:102E3C0087B005930133041E019300D1BEE0856D6C
:102E4C00002D05D1FFF71AFE23005433E5651D70E4
:102E5C00802326685B05B2681A4200D1B1E00022DB
:102E6C00B3680192DB0008D410230125A26D0195F3
:102E7C001343A365E36D2B43E3653000FFF7D2FFEB
:102E8C001023A26D1A40104300D0E8E0A36D774ADE
:102E9C0001001A4002231343A36523689A68D207E2
:102EAC002ED4DA6818318A43A168656C0A43216C08
:102EBC00DA602943A56C62682943E56C960FB60766
:102ECC002943314326003C363678012E00D131435C
:102EDC001E69674F3E4080270E431E6156007608E0
:102EEC00FF05BE420CD080263606B24208D0614E99
:102EFC00614F35682F40F025AD032A403A433260CC
:102F0C00267E627EB603D2031643A27E94465703F6
:102F1C00226B002A01D080225201E5682E432569DC
:102F2C003E4303960295002D5FDA6F007F08260062
:102F3C002C363678039D76002E433243661CF67F82
:102F4C003A43012E05D16546002D51D180267602DB
:102F5C003243666A002E05D0E027A56A7F003E400A
:102F6C002E433243DE68454F656B3E401643DE60B0
:102F7C001E69434F3E40314307267027196159693A
:102F8C00B143294359615E69A16BBE4309013143C9
:102F9C0059610299002933D1986A10390143996219
:102FAC00DB6838490B4093424CD100230322E36584
:102FBC00A36D93431A0001231343A365019807B033
:102FCC00F0BDB26830490A401343B3602F4B30490F
:102FDC001868FDF7ADF840000590059B002B00D15B
:102FEC003DE7059B013B0593F7E78027BF039EE771
:102FFC002027A56D2F43A765E76D3E43E665A8E73F
:10300C008021029D89038D42CAD10F27266E35007F
:10301C008100CD40290039400F290DD001300828FE
:10302C00F5D11C20996AE1690139890001402C38DD
:10303C00884001003143B2E70128F2D11021986A8F
:10304C004942ABE71222A36D012593431A001023CA
:10305C001343A365E36D01952B43E365AEE7A26DC6
:10306C001343A36501230193A8E7C046FDFEFFFFB0
:10307C0002FCFF1F08270140FFFFC3FF1902FEFFE0
:10308C0002FCFFDFE7FF3F83E8FFFF6F0800002033
:10309C00400D03007047704710B5806AFFF7FBFFC7
:1030AC0010BD70474023806A10B5826D1343836551
:1030BC000423C26D1343C365FFF7F3FF10BD00007B
:1030CC00502310B5846AA26D1A422CD1A26DB13373
:1030DC00FF331343A365C02320681B01C2681A4247
:1030EC0014D1A37E002B11D103681B070ED5FFF75B
:1030FC0099FE00280ED10C21226853688B43536033
:10310C00A36D0E4A1A4001231343A3652000FFF759
:10311C00C1FF10BD2023A26D1343A3650123E26DF3
:10312C001343E365F2E7A36DDB0603D52000FFF73D
:10313C00B8FFEEE7236D5B6B9847EAE7FEFEFFFFF7
:10314C000023F0B587B00593030054331A780500BB
:10315C000E000220012A00D1C2E001241C70286854
:10316C00FFF760FE002800D0F8E08022736812069A
:10317C000193042394462F69019A9F433368022AD2
:10318C0000D1C1E05903490B2A68029167450FD160
:10319C00906A01439162B16854691802724E014001
:1031AC003140844321435161002B64DB002094E0C7
:1031BC001F21019F0F40BC460F2761468F40F943EA
:1031CC000391296EB9430F000299002914D1980E6E
:1031DC001F31084061468840019907438908E86916
:1031EC0001312F668142D6D864469900090FA1405F
:1031FC00906A039C2040CCE72342EBD102212000B3
:10320C000B42E7D1080049180B42E3D101301907F2
:10321C00E0D40130D906DDD401309906DAD401307E
:10322C005906D7D401301906D4D40130D905D1D4DC
:10323C0001309905CED401305905CBD40130190594
:10324C00C8D40130D904C5D401309904C2D401309A
:10325C005904BFD401301904BCD40130D903B9D4FA
:10326C0001309903B6D480211800C90208400B42E2
:10327C00B0D01220AEE7E0243C4A3D48116864040B
:10328C000C40834219D180231B0419428ED1116842
:10329C003848014021431943374B116018683749AE
:1032AC00FCF746FF0C23434301330593059B002B8E
:1032BC0000D17BE7059B013BF7E73148834211D1F5
:1032CC008026080076043040314200D06EE7116849
:1032DC00284B194021430E431660002354352B70A4
:1032EC0007B0F0BD2748834200D05FE78023080079
:1032FC00DB031840194200D058E711681D4E3140CD
:10330C0021430B431360E8E7674505D1286859034F
:10331C00826A490B8A438262002B00DB46E7134A20
:10332C0013481168834208D1A02310685B0419402C
:10333C00104B03401943116038E71148834203D105
:10334C00C02310681B04F2E70E48834200D02DE71F
:10335C00C0204004014013680648EAE72023AA6D08
:10336C0020001343AB65B8E700FFFF0708270140B7
:10337C00001000B0FFFF3FFE08000020400D0300CE
:10338C00004000B8002000B40023F7B504000193FE
:10339C00036801209A68024201D00020FEBD9968A2
:1033AC001F4A114207D01023A26D1343A365E36D8E
:1033BC000343E365F2E79A681A4D2A40104398607C
:1033CC00194B1B681B021DD4637E012BE5D0FFF744
:1033DC0011FD01260700226813683342DDD1936882
:1033EC00334203D193682B4033439360FFF702FDC4
:1033FC00C01B0228EFD91023A26D01201343A36533
:10340C00E36DD5E7094B0A491868FCF791FE0130CA
:10341C000190019B002BD7D0019B013B0193F8E756
:10342C0017000080E8FFFF7F0827014008000020FC
:10343C00400D0300F8B5040000680D001600FFF7FE
:10344C00F1FC0223002840D1270054373A78012A96
:10345C003BD001223A702368D96811420CD199688B
:10346C00114205D09A681A49114002220A439A6007
:10347C000122D9680A43DA602000FFF785FF031E9A
:10348C0023D1A26D13491140802252000A43A26538
:10349C00E065114A206D2168C262104A0263104A2D
:1034AC0042631C220A603B704A68103313434B6022
:1034BC002A003300403100F083F9030020680449EE
:1034CC008268114004220A4382601800F8BDC0468D
:1034DC00E8FFFF7FFEF0FFFFCD300008A5300008AD
:1034EC00B1300008036870B50400012099689A682F
:1034FC00024201D1002070BD02221142FAD10521F5
:10350C009D680D40012D1BD19968114801400A435B
:10351C009A6003221A60FFF76DFC060023689B6813
:10352C002B42E7D0FFF766FC801B0228F6D910234C
:10353C00A26D01201343A365E36D1D43E565DAE736
:10354C001023A26D1343A365E36D0343E365D2E738
:10355C00E8FFFF7F73B500230500019354352B78EA
:10356C0004000220012B2DD0012620002E70FFF725
:10357C00B9FF23689A68324232D1A26D1A490236D9
:10358C00114002220A43A265D968DA683140B2437D
:10359C00DA6080229E6812063243144E9A609A6852
:1035AC00002A10DA019A01320192019AB242F6D93C
:1035BC001222A36D012093431A0010231343A36519
:1035CC0000232B7076BDDA680A43DA600322A36D00
:1035DC0093431A0001231343A36500232B70F1E7D7
:1035EC001023A26DF7E7C046FDFEFFFFFFF10200BE
:1035FC0030B5FF2503242A000440E400A2408901D1
:10360C002940D243A140C3B200280ADBC0240B4B93
:10361C0080088000C018A40003591A4011430151BE
:10362C0030BD0F200340083B05489B089B001B182E
:10363C00D86902401143D961F2E7C04600E100E0CD
:10364C0000ED00E0002805DB1F2318401E3B8340E3
:10365C00014A13607047C04600E100E08022431E1F
:10366C005204012093420DD2C021074A07485360EF
:10367C00036A09061B021B0A0B4303620020072383
:10368C00906013607047C04610E000E000ED00E071
:10369C00F0B5846CC56C6560046D002C02D0446D73
:1036AC00856D65601C25046C084E25400124AC40DA
:1036BC0077683C437460046863608368102B02D1A4
:1036CC00A260E160F0BDA160E260FBE70000024097
:1036DC0010B50400036C094A9B089B189B004364BB
:1036EC0003681421D8B20838FCF722FD044BA364FC
:1036FC001F2318401E3B8340E36410BD0082001062
:10370C008008024070B504000120002C49D02568C7
:10371C00274B1421E818FCF70BFD02238000A61D93
:10372C002064F3772B68234AE16813402B60A3686D
:10373C002A680B43216920000B4361690B43A16983
:10374C000B43E1690B43216A0B4313432B60FFF7D7
:10375C00BFFF8023A268DB019A4201D10023636082
:10376C003F236268616C13400B60E06CA16C013A02
:10377C004860032A16D8104A104899180322013BB6
:10378C001340023A9A40A265130000228900216579
:10379C0060650A60436000200123E0630534F37721
:1037AC00E07770BD002323656365A365F3E7C0462E
:1037BC00F8FFFDBF0F80FFFF3F8200104009024061
:1037CC00F7B5451D0193EE7F04000220012E34D085
:1037DC000138E877A71DFE7FB4466346F6B2009623
:1037EC000026834231D10130F8772568E6632868DA
:1037FC00009B98432860019B2000FFF749FF226B38
:10380C002368B2421AD00E2219680A431A60626CFD
:10381C001168C90304D58021106849000143116067
:10382C00226D002A04D080211068490001431160E8
:10383C000122002019680A431A60FEBD04211A688F
:10384C008A431A6019680A22DFE78023E363EE7764
:10385C00F3E70000F8B51C210427046C264B21402B
:10386C003C008C401E680268156826420FD03D4211
:10387C000DD01168890602D41168B94311605A68D9
:10388C0014435C60036B002B1BD0984719E0022794
:10389C003C008C40264215D03D4213D0116889065D
:1038AC0006D40A251168A94311600121821DD17724
:1038BC005A68144300225C60431DDA77C36A934252
:1038CC00E3D1F8BD082427008F403E42F9D02542B1
:1038DC00F7D00E251468AC431460012215008D40FE
:1038EC0029005C6821435960831DC263DA7700228A
:1038FC00431DDA77436BE2E7000002400023F0B58A
:10390C0085B00A681400DC4001D105B0F0BD01247B
:10391C0015009C4025400295224200D18AE01025DA
:10392C004A685E000192AA430D3DB5409446013AA7
:10393C00ED43012A0FD8CA688768B2402F403A433A
:10394C00012782604268A2431400019A12093A408E
:10395C009A40224342608A68C468B2402C40224399
:10396C00C2606246022A0FD1DA080724920082183C
:10397C00176A03920F221C40A400A24097430A69C5
:10398C00A2401743039A1762032402681540019A58
:10399C002240B24080241543019A640505602242FE
:1039AC0048D003250F271D40ED00AF40224A9C084C
:1039BC00A400A418266E0022BE43A027FF05B8421F
:1039CC000CD01E4F0132B84208D01D4F0132B84204
:1039DC0004D01C4F0132B84200D00232AA4032430C
:1039EC002266194A029CD66F029D019FE44335431F
:1039FC00FF0301D435002540D567144D029EEA6FB4
:103A0C00019F1643BF0301D4224016000A4AEE67F9
:103A1C001668029D019F3543FF0201D435002540F5
:103A2C0015605568029E019F2E43BF0201D42540AC
:103A3C002E005660013364E7001802400004005069
:103A4C0000080050000C00500418024008180240F6
:103A5C0003689A69920701D500229A62012299693A
:103A6C00114202D199690A439A61704730B5039C9F
:103A7C001204006822431A43054B45688905640DFE
:103A8C00890D1C43A5430A432A43426030BDC046FE
:103A9C00FF63FF03F8B5036816009A69040010234E
:103AAC0010000D00202718401A4218D1F8BD6A1CCE
:103ABC0016D0FFF79FF9801BA84201D8002D0ED11C
:103ACC002022636C13436364230041331A70220079
:103ADC00002342324034137001202370E6E7236840
:103AEC009A693A42E3D010222000DA61DF61FFF7D5
:103AFC00AFFF2268054953680B4053600423626C86
:103B0C0013436364230041331F70E0E700E800FEB9
:103B1C00F8B504000D001600202723689B693B4272
:103B2C0001D00020F8BD320029002000FFF7B2FFC1
:103B3C00002813D1FFF75EF9801BA84201D8002D95
:103B4C00EBD12022636C13436364230041331A705E
:103B5C002200002342324034137023700120E1E72D
:103B6C00F8B504000E0017001D002268936933405D
:103B7C009B1B59424B41BB4201D0002017E06B1CF0
:103B8C00F4D0FFF737F9069BC01AA84201D8002DD4
:103B9C00EBD12022636C0120134363642300413377
:103BAC001A70220000234232403413702370F8BD87
:103BBC00F8B504000D001600022723689B693B42F0
:103BCC0001D00020F8BD320029002000FFF762FF71
:103BDC00002815D16B1CF0D0FFF70CF9801BA84204
:103BEC0001D8002DE9D12022636C134363642300B8
:103BFC0041331A7022000023423240341370237078
:103C0C000120DFE7F7B514001E00DAB2164B0500F1
:103C1C0000938023089F5B04FFF728FF39002800DE
:103C2C00099AFFF7C5FF002801D00120FEBD2B68C3
:103C3C00012E0DD1E4B29C62099B002200938021DD
:103C4C003B002800FFF78CFF431E9841C0B2EDE704
:103C5C00220A9A6239002800099AFFF7A9FF002866
:103C6C00E3D12B68E6E7C0460020008070B5040065
:103C7C000120002C3FD0250041352B78DAB2002BE7
:103C8C0005D12300403320001A70FEF745FF242392
:103C9C0001212B702368E0681A68A6688A431A60B1
:103CAC0061681A4A0A401A619968194A1140996068
:103CBC00012821D1802109023143996058681549A6
:103CCC0001435960D96800200A40DA6061692269B1
:103CDC000A43A16909020A43DA60216AE2690A43CC
:103CEC001A60012219680A431A60202360642B7041
:103CFC0020634234207070BD8421090231439960E5
:103D0C000228DBD1802109015960D7E7FFFFFFF0C2
:103D1C00FF7FFFFF00800002F0B589B007930EAB68
:103D2C00069204CB04001B880392049303004133D6
:103D3C0005931B780F000220202B08D1002A02D0FB
:103D4C00049B002B05D180239B006364012009B0E8
:103D5C00F0BD2300403302931B780220012BF6D0D8
:103D6C000122029B1A70FFF745F880210090050094
:103D7C001923012220000902FFF7F2FE061EE5D1ED
:103D8C002123059A390013702300423305934023F5
:103D9C00059A1370039B60646362049B6063638584
:103DAC00109B20000093069A079B0195FFF72AFFB2
:103DBC00002802D0029B1E70C8E7638DFF2B54D9DC
:103DCC00FF22802322855B0400903900200080268E
:103DDC00FFF74CFEB6042A0020001099FFF7E8FE0E
:103DEC000028B3D1636A2268197801339162636247
:103DFC00638D228D013B9BB26385013A638D92B238
:103E0C002285002B17D0002A15D180212000109B71
:103E1C000095FFF7A5FE002800D097E7638DFF2BD8
:103E2C002BD9FF2323858023FF2200905B043900CC
:103E3C002000FFF71BFE638D002BCCD12A00200045
:103E4C001099FFF765FE002800D07FE7202123683A
:103E5C000D4DD9615A682A405A60230041331970BC
:103E6C00059B40341870207071E78023628D9B0491
:103E7C0092B22285D2B20090A7E7628D330092B243
:103E8C002285D2B20090D2E700E800FEF0B5040023
:103E9C004134227803000F000220D6B2202A18D118
:103EAC001D0040352A78012A13D0242222701B6869
:103EBC00233A19680748914319601968014000209A
:103ECC00196019683943196019680A431A60267019
:103EDC002870F0BDFFEFFFFF0200F0B541321478FF
:103EEC000300E5B20220202C17D11C0040342678A8
:103EFC00012E12D0223010701B6823381E68074F19
:103F0C0086431E601E6809023E40314319601968E1
:103F1C0008431860002015702070F0BDFFF0FFFF03
:103F2C0010B5114C1149236802000B400343236068
:103F3C00802300209B009A420ED10D4B0D4918682E
:103F4C0006235843FCF7F4F88022431CD200616925
:103F5C0008001040114200D110BD002B01D0013BD4
:103F6C00F5E70320F8E7C04600700040FFF9FFFFBB
:103F7C000800002040420F00F0B5040085B0002876
:103F8C0023D00368DB0710D423689B075ED4236817
:103F9C001B0700D5C3E023685B0700D5F5E0E26999
:103FAC00002A00D07CE1002029E03822B04DAB681B
:103FBC001340EA68102B0AD1D243930709D12B681E
:103FCC009B03E1D56368002BDED1012017E0082BA1
:103FDC00F5D0802263685202934212D12A681343AF
:103FEC002B60FEF707FF80270600BF022B683B42C1
:103FFC00CAD1FEF7FFFE801B6428F7D9032005B059
:10400C00F0BDA021C9028B4208D180232968DB02B4
:10401C000B432B602B681A432A60E2E72A68954908
:10402C000A402A602A6894490A402A60002BD8D199
:10403C00FEF7E0FE80270600BF022B683B42A3D0B0
:10404C00FEF7D8FE801B6428F7D9D7E73823884DB4
:10405C00AA681340EA68102B28D103210A40022ACF
:10406C0026D12A68520502D5E268002AADD06968CB
:10407C0062698248120201400A436A60002B0DD12A
:10408C002B687F4A1340226913432B602B687D4AAF
:10409C009B045B0FDA4013007B4A13607B4B186860
:1040AC00FEF760FE002800D171E78EE7002BD8D018
:1040BC00E368002B20D02B68714A802713402269BB
:1040CC00FF0013432B6080232A685B0013432B6093
:1040DC00FEF790FE06002B683B4207D06A686369C6
:1040EC0066491B020A4013436B6050E7FEF782FEE1
:1040FC00801B0228EFD981E72B68654A8027134083
:10410C002B60FEF777FE0600FF002B683B4200D1C8
:10411C003DE7FEF76FFE801B0228F6D96EE73821CB
:10412C00534B9A681D000A40182A08D11B6E9B0736
:10413C0000D430E7A369002B00D02CE745E7A26937
:10414C000123002A10D02A6E022713432B66FEF798
:10415C0051FE06002B6E3B4200D01CE7FEF74AFED8
:10416C00801B0228F6D949E72A6E02279A432A6651
:10417C00FEF740FE06002B6E3B4200D10BE7FEF72C
:10418C0039FE801B0228F6D938E73821384B9A685B
:10419C001D000A40202A08D1DB6D9B0700D4FEE6E7
:1041AC00A368002B00D0FAE60FE780220021DB6B1E
:1041BC0052050091134208D1EB6B1343EB63EB6B8D
:1041CC0013400393039B012300938027314E7F0000
:1041DC0033683B4215D0A368012B22D1EA6D1343FF
:1041EC00EB65FEF707FE02270600EB6D3B4238D06D
:1041FC00009B012B00D0D2E6EB6B274A1340EB63FC
:10420C00CDE633683B433360FEF7F4FD0190336831
:10421C003B42E0D1FEF7EEFD019BC01A0228F6D915
:10422C00ECE6EA6D052B05D1013B1343EB65EA6D1A
:10423C000123D4E701218A43EA65EA6D03318A43FD
:10424C00EA65002BCDD1FEF7D5FD02270600EB6DFC
:10425C003B42CDD0FEF7CEFD104B801B9842F6D9D9
:10426C00CCE6FEF7C7FD0D4B801B9842BDD9C5E6C9
:10427C0000100240FFFFFEFFFFFFFBFFFF80FFFF70
:10428C00FFC7FFFF0024F4000800002010000020EE
:10429C00FFFEFFFF00700040FFFFFFEF88130000E0
:1042AC003820444B99681D000140102954D01B68DC
:1042BC0041490B402B60022A37D1FEF79BFD80272A
:1042CC000600BF042B683B4229D1616A236AEA6865
:1042DC000B433A4980260A401343E26AB60413435F
:1042EC00226B1343626B1343A26A12021343EB60FB
:1042FC0080232A685B0413432B608023EA685B05E8
:10430C001343EB60FEF776FD04002B68334200D0BC
:10431C0049E6FEF76FFD001B0228F6D96EE6FEF7A4
:10432C0069FD801B0228CDD968E60322EB68802644
:10433C009343EB60EB68224AB6041340EB60FEF744
:10434C0059FD04002B68334200D12CE6FEF752FDD8
:10435C00001B0228F6D951E6012A00D135E60322CA
:10436C00DB68216A1A408A4200D02EE67022616A0C
:10437C001A408A4200D028E6FE21A26AC9011940DF
:10438C001202914200D020E6F822E16A92031A4010
:10439C008A4200D019E6E022216B12051A408A42AB
:1043AC0000D012E6626B5B0F5B07934200D1FAE51B
:1043BC000BE6C04600100240FFFFFFFE8C80C111CF
:1043CC00FFFFFEEE38231E4A70B5916814001942A7
:1043DC0005D113681B489B045B0FD84070BD9168D6
:1043EC001940082927D091681940102917D1D36892
:1043FC00D168DB437F22E5684906490F2D0A01315C
:10440C0015409B0709D11048FBF792FEE168684301
:10441C00490F0131FBF78CFEE0E70A48F4E791689D
:10442C001940202909D0926800201340182BD5D1AF
:10443C00FA20C001D2E70448D0E780200002CDE783
:10444C00001002400024F40000127A00F7B50500B9
:10445C000E00002801D10120FEBD07274A4C23681D
:10446C003B408B422AD329688B073BD4CB0748D4DB
:10447C00072723683B40B3420AD92368BB43334325
:10448C002360FEF7B7FC019023683B40B3426BD12D
:10449C002B683E4C5B076FD4FFF794FFA3683C4A34
:1044AC001B051B0F9B009B581F221340D840394BF8
:1044BC001860394B1868FEF755FCCDE72368BB43F1
:1044CC000B432360FEF796FC019023683B40B342FC
:1044DC00C9D0FEF78FFC019BC01A304B9842F4D91F
:1044EC000320B9E7294A4B0704D5E0239068DB0188
:1044FC000343936093682A480340A868034393607E
:10450C00B4E76A68214F012A19D13B689B03A2D5F5
:10451C000721BB688B431343BB60FEF76BFC019018
:10452C003823BA681A406B68DB009A42A0D0FEF7B9
:10453C0061FC019BC01A194B9842F1D9D0E7022AB1
:10454C0003D13B689B01E3D485E7002A03D13B6888
:10455C005B05DDD47FE70223032A03D1396E1942B0
:10456C00D6D178E7F96DFAE7FEF744FC019BC01A47
:10457C000A4B984288D9B3E7A3680A4A1340EA6801
:10458C001343A36088E7C04600200240001002409D
:10459C004480000808000020100000208813000050
:1045AC00FFF0FFFFFF8FFFFFF0B505002B68002029
:1045BC0085B09B033CD58022604C5205E36B009088
:1045CC00134208D1E36B1343E363E36B1340039390
:1045DC00039B012300938027594E7F0033683B4394
:1045EC003360FEF707FC019033683B4212D0E26D5A
:1045FC00C02311009B00534E19401A4203D06B6A22
:10460C00994200D07AE0E36D00201E406B6A1E4395
:10461C00E66506E0FEF7EEFB019BC01A0228E3D923
:10462C000320009B012B03D1E36B474A1340E36348
:10463C002B68DA0706D5032440494A6DA2436C68FF
:10464C0022434A65DA0606D53C49404C4A6D224065
:10465C00AC6822434A659A0506D538493C4C4A6DEC
:10466C0022406C6922434A655A0506D53349394CB8
:10467C004A6D2240AC6922434A659A0606D52F49F9
:10468C00354C4A6D2240EC6822434A655A040FD5DA
:10469C002A49EC694A6D9200920822434A658022AD
:1046AC00D205944204D18022CC6852022243CA60C3
:1046BC009A020FD52149294E4A6D2C6A3240224369
:1046CC004A658022D203944204D18022CC685204E1
:1046DC002243CA601B050FD5184A214C536D29691A
:1046EC0023400B4353658023DB01994204D1802383
:1046FC00D1685B020B43D36005B0F0BD8023E26D43
:10470C00E06D11005B020343E365E36D1548314036
:10471C000340E365E165D30700D474E7FEF76AFB59
:10472C0007000222E36D134200D06CE7FEF762FB38
:10473C000D4BC01B9842F4D972E7C04600100240E2
:10474C0000700040FFFCFFFFFFFFFFEFFFF3FFFFD8
:10475C00FFFFF3FFFFFFCFFFFFCFFFFFFFFFBFFF09
:10476C00FF3FFFFFFFFFFEFF881300000200030066
:10477C0001203D32117881421CD1022111701B683D
:10478C00DA680243DA600E4A934206D08022D205E0
:10479C00934202D00B4A93420DD19A680A490020E9
:1047AC000A40062A06D007398A4203D0012219682A
:1047BC000A431A6070471A68104318600020F9E722
:1047CC00002C0140000400400700010070477047B6
:1047DC0070477047704700000222036810B51969D2
:1047EC00040011420ED0D96811420BD0053A1A615F
:1047FC00043202779B699B0700D186E0FFF7E8FF44
:10480C0000232377042223681969114211D0D96837
:10481C0011420ED0093A1A61073222779A69C023E5
:10482C009B0020001A4200D175E0FFF7D1FF002356
:10483C00237708222368196911420ED0D9681142D6
:10484C000BD0113A1A610D322277DB6920009B07DD
:10485C0067D0FFF7BDFF0023237710222368196967
:10486C00114210D0D96811420DD0213A1A61193277
:10487C002277DA69C0239B0020001A4257D0FFF739
:10488C00A7FF00232377012223681969114207D05F
:10489C00D968114204D0033A20001A61FFF796FF41
:1048AC00802223681969114208D0D968114205D0B9
:1048BC00023AFF3A20001A6100F0B5F823681A6931
:1048CC00D20507D5DA68120604D51C4A20001A61F5
:1048DC0000F0AAF8402223681969114207D0D96860
:1048EC00114204D0813A20001A61FFF773FF202295
:1048FC0023681969114207D0D968114204D0413A92
:10490C0020001A6100F08EF810BDFFF760FF200048
:10491C00FFF75FFF74E7FFF75AFF2000FFF759FF1F
:10492C0085E7FFF754FF2000FFF753FF93E7FFF7EE
:10493C004EFF2000FFF74DFFA3E7C046FFFEFFFF31
:10494C001D4A10B50368904206D08024E405A042AD
:10495C0002D01A4CA0420CD17024A3434C682343C0
:10496C0090420FD08024E405A0420BD0134CA042FF
:10497C0008D0134CA04205D0124CA04202D0124CCD
:10498C00A04203D1114C2340CC6823438024A34381
:10499C004C69234303608B68C3620B68836290424B
:1049AC0005D0084B984202D0074B984201D10B69B5
:1049BC0003630123436110BD002C0140000400403F
:1049CC00002000400044014000480140FFFCFFFF74
:1049DC0070B504000120002C23D025003D352B7828
:1049EC00DAB2002B05D123003C3320001A70FEF7FD
:1049FC00C7F802232B702068211DFFF7A1FF2200AE
:104A0C00012300204832137047340A3A1370537054
:104A1C009370D370137153719371D371137223709C
:104A2C002B7070BD7047704770470000014B1868C1
:104A3C007047C0461400002070B500260C4D0D4C7C
:104A4C00641BA410A64209D1002602F06FFF0A4D88
:104A5C000A4C641BA410A64205D170BDB300EB58E0
:104A6C0098470136EEE7B300EB5898470136F2E76A
:104A7C006484000864840008648400086884000866
:104A8C00002310B59A4200D110BDCC5CC454013344
:104A9C00F8E703008218934200D170471970013374
:104AAC00F9E7F0B51E00002314008BB09E4204DA27
:104ABC008021090673181E002D23129A149F13705F
:104ACC00202303229F43462F07D03B00453B5942EE
:104ADC004B411099013ACB18109309AB049308ABD6
:104AEC000393139B00920293109B220001933300BB
:104AFC0000F0FEFC0500472F02D1119BDB0728D5E7
:104B0C00109BEB180793462F14D12B78302B0CD11C
:104B1C000022002320003100FBF790FC002804D178
:104B2C000123109A9B1A139A1360139B079A1B6804
:104B3C00D31807930022002320003100FBF77EFCE2
:104B4C00002801D0079B09933022099B07998B42BF
:104B5C0006D32800099B159A5B1B13600BB0F0BDA4
:104B6C00591C09911A70F0E7F0B5831C87B00393B8
:104B7C0005000C002B230270002901DA4C42023391
:104B8C006B70092C31DD0A2704ABDE1D20003900C7
:104B9C000196FBF73DFC013E3031200031703900AD
:104BAC000294FBF74FFB029B0400632BEEDC019B92
:104BBC0030349A1E13000399147004A807309842DD
:104BCC000ED804AB073300209A4204D804AB09304A
:104BDC00C018019BC01A039B1818401B07B0F0BDEE
:104BEC001878013308700131E7E73023E418AB7013
:104BFC00281DEC70F1E70000F0B595B00C000892A0
:104C0C001A9D0993070001F091FA036818000B93A1
:104C1C00FBF772FA00231293237E07221E002368EF
:104C2C000D900C930C992B68C90547D59B18934391
:104C3C001A0008322A601A685B68A264E3640122D5
:104C4C00A36CE56C0A936B005B080E930A98A84B57
:104C5C000E995242FDF7E4FA002831D10122A44BFF
:104C6C000A980E995242FBF7F9FB002828D1002232
:104C7C00002329000A98FBF7E7FB002803D0230048
:104C8C002D2243331A709B4D472E00D99A4D032386
:104C9C000C9A236101339A43002322600A93099BE7
:104CAC00210000933800089B13AA00F0F3F9431C71
:104CBC0000D09EE00120404215B0F0BD0733B6E7AE
:104CCC000A9A2B0010002900FDF7AAFA00280AD036
:104CDC00002D03DA23002D2243331A70874D472E03
:104CEC00D5D9874DD3E720223100636891430E91CB
:104CFC005A1C47D10733636080230C9ADB001343A3
:104D0C000022069212AA059211AA0392232208A944
:104D1C0023600193636852180292009338002B00B1
:104D2C000A9A0496FFF7BDFE0E9B05001199472BBE
:104D3C0008D1CB1C02DB6368994246DD3300023B91
:104D4C00DBB21E00652E24D8200032000139503011
:104D5C001191FFF709FF129A0A9013182361012A87
:104D6C0002DC2268D20701D501332361232308AA70
:104D7C009B181B78002B00D191E723002D22433385
:104D8C001A708CE70E9A472AB6D1002BB4D1013396
:104D9C00B1E7662E1BD1636800290DDD2161002B64
:104DAC0002D12268D20702D5013359182161119B17
:104DBC00A36500230A93D9E7002B03D101222168B4
:104DCC00114200D09A1C2261F1E767231E00119B4F
:104DDC00129A934206DB22682361D207E7D501338E
:104DEC002361E4E70121002B01DC4918C91A521890
:104DFC00E9E72268530508D423692A00380008998A
:104E0C00099DA847431C29D154E7652E00D8ECE036
:104E1C00A06CE16C00220023FBF710FB002834D0BF
:104E2C0001233800374A0899099DA847431C00D133
:104E3C0040E7119B129A934202DB2368DB070DD5E6
:104E4C00099D38000D9B0B9A0899A8470025431C17
:104E5C0000D12FE7129B013BAB420ADC23689B0776
:104E6C0000D514E1139BE068984200DB24E718009E
:104E7C0022E72200012338000899099E1A32B04714
:104E8C00431C00D116E70135E4E7119B002B3BDCFA
:104E9C00012338001B4A0899099EB047431C00D1D6
:104EAC0008E7119B129A134302D12368DB07D5D56F
:104EBC000D9B38000B9A0899099EB047431C00D1F2
:104ECC00F8E600230A93119B0A9A5B42934201DC99
:104EDC00129B92E72200012338000899099E1A328E
:104EEC00B047431C00D1E5E60A9B0133EAE7C04614
:104EFC00FFFFEF7F888000088C80000890800008FE
:104F0C009480000898800008129AA36D0A929A4225
:104F1C0000DD0A930A9B002B3DDC00230E930A9BB9
:104F2C00DB43DB170F93A36D0F9A0C930A9B134073
:104F3C000C9AD31A0E9A934236DC119B129A934216
:104F4C0040DB2368DB073DD4129A0C9B1199D31AD2
:104F5C00521A0A929A4200DD0A930A9B002B3ADC01
:104F6C000A9B0025DB43DB170B93119A129B0B99C1
:104F7C009B1A0A9A0A409B1AAB4200DC6EE722008D
:104F8C00012338000899099E1A32B047431C00D1FE
:104F9C0090E60135E9E70A9B2A0038000899099E3A
:104FAC00B047431CB9D185E622000123380008998B
:104FBC00099E1A32B047431C00D17BE60E9B01338D
:104FCC000E93B0E70D9B38000B9A0899099EB047D9
:104FDC00431CB9D16EE60C9B3800EA1808990A9B61
:104FEC00099DA847431CBBD164E6129B012B02DC34
:104FFC0001231A4238D001232A0038000899099E4F
:10500C00B047431C00D155E60D9B38000B9A08990C
:10501C00099EB047431C00D14CE6A06CE16C002209
:10502C000023FBF70BFA00281CD1129B6A1C013BD6
:10503C0038000899099DA847431C0FD13AE6220075
:10504C00012338000899099E1A32B047431C00D13D
:10505C0030E60135129B013BAB42F0DC22000A9B8F
:10506C005032CBE60025F5E72A00E1E722000123C8
:10507C0038000899099E1932B047431C00D119E633
:10508C000135E368139A9B1AAB42EFDCEAE6002584
:10509C00F7E7C046F7B5150001938A680B690C0059
:1050AC000090934200DA130022002B6043321278F6
:1050BC00002A01D001332B6023689B0602D52B6894
:1050CC0002332B602268062317001F401A4227D098
:1050DC00230043331B785A1E93412268920630D426
:1050EC00220001990098089E4332B047431C25D0FA
:1050FC00062320682A68E16800250340042B03D1AD
:10510C008D1AEB43DB171D40A3682269934201DD26
:10511C009B1AED180027BD4220D1002010E001376A
:10512C00E3682A689B1ABB42D2DD22000123019955
:10513C000098089E1932B047431CF0D10120404220
:10514C00FEBD3020E1184331087021005A1C453156
:10515C000978A218433202331170C1E722000123EF
:10516C0001990098089E1A32B047431CE6D00137CB
:10517C00D1E70000F0B58BB006920A0043320793DA
:10518C00059004920A7E0C00109B782A06D8622A9D
:10519C0008D8002A00D1C0E0582A52D02600423646
:1051AC00327022E0100063381528F7D8FAF7B6FFF2
:1051BC0016001F00F6FFF6FFF6FFF6FF1F00F6FFC6
:1051CC00F6FFF6FFF6FFA80036009A00F6FFF6FF92
:1051DC00B900F6FF3600F6FFF6FF9E0026001A68AF
:1051EC004236111D1960136833700123A7E008685B
:1051FC0019680A1D05060BD50D681A60002D03DA17
:10520C002D23049A6D421370614B0A27039332E0ED
:10521C000D681A604106F1D52DB2EFE70D681968DB
:10522C00081D18602E0601D50D6803E06D06FBD530
:10523C000D68ADB2564B0A2703936F2A17D1082776
:10524C0015E045310A70524A03921A68216820CA47
:10525C001A60080650D5CB0702D5202319432160CC
:10526C001027002D03D1202322689A4322602300AB
:10527C00002243331A706368A360002B03DB042203
:10528C00216891432160002D02D1049E002B0CD08B
:10529C00049E28003900FAF7D1FF039B013E5B5CAA
:1052AC0033702B0005009F42F3D9082F09D12368D6
:1052BC00DB0706D563682269934202DC3023013E8A
:1052CC003370049B9B1B2361079B21000093059863
:1052DC00069B09AAFFF7DEFE431C35D10120404294
:1052EC000BB0F0BD202209680A432260220078210D
:1052FC0045321170274AA7E74806ACD5ADB2AAE7EC
:10530C001A680D68101D4969186013682E0601D5BE
:10531C00196002E06D06FBD519800023049E236101
:10532C00D2E71A68111D19601668002130006268F6
:10533C0000F00AFF002801D0801B606063682361C5
:10534C000023049A1370BFE723693200069905986D
:10535C00079DA847431CC1D023689B0715D4099B04
:10536C00E0689842BCDA1800BAE7220001230699DB
:10537C000598079E1932B047431CAFD00135E3683E
:10538C00099A9B1AAB42F0DCE9E70025F7E7C04627
:10539C009A800008AB8000080EB400B50B499CB095
:1053AC001DAB02900690079104910948094904CB62
:1053BC000591006802A9019301F088FB0023029A71
:1053CC0013701CB008BC03B01847C046FFFFFF7F2A
:1053DC00140000200802FFFFF0B506000D693369C8
:1053EC0087B000200291AB426BDB0B00013DAC009F
:1053FC00143305931B1903933300143301931C19B5
:10540C00039B27681B683800009301331900049331
:10541C00FAF78EFE049B00909F4229D300239C46F2
:10542C000198059F049308CF009A99B251431B0C25
:10543C00534361440A0C9B181A0C05930368944659
:10544C009AB2049B89B2D2180368521A190C6B4693
:10545C009B8ACB1A11145B18191492B21B041A43B1
:10546C00039B049104C0BB42DDD22368002B2ED0D9
:10547C003000029901F0FAF8002821DB30000024FA
:10548C00009B02990133009314301431026808C94F
:10549C0092B214199AB2A21A04681B0C240CE31AC7
:1054AC0014141B191C1492B21B04134308C0039B45
:1054BC008B42EBD2019AAB00D3181A68002A10D099
:1054CC00009807B0F0BD2368002B04D1013D019B6F
:1054DC00043CA342F7D33561CAE71A68002A04D109
:1054EC00013D019A043B9A42F7D33561E8E700008D
:1054FC00F0B59DB002920393029B039C0A930B940C
:10550C00446A0700259D002C0ED1102000F012FEDD
:10551C00021E786204D1EA21C04BC14801F0E8FBBD
:10552C00446084600460C4607B6A196800290AD0F6
:10553C005A68012393404A608B60380000F054FE97
:10554C0000227B6A1A60039B002B21DA01232B605B
:10555C00039B5B005B080B930B9DB24B2A001893CB
:10556C001A409A4217D1B04B249A28031360029B1D
:10557C00000B184301D100F0C3FDAC48269B0590ED
:10558C00002B02D0AA4B269A136005981DB0F0BDD3
:10559C0000232B60E0E70A9B0B9C12931394129848
:1055AC00139900220023FAF749FF041E0BD00123A4
:1055BC00249A13609F4B269A0593002AE5D09E4AA5
:1055CC0026990A60E1E71AAB01931BAB00933800F4
:1055DC00129A139B01F0FEF86E000490760D00D128
:1055EC007CE012981399139B944A1B031B0B1A43D0
:1055FC001100934B1694F6180022924BFCF77EFA8E
:10560C00914A924BFCF70EF8914A924BFBF79AF8A1
:10561C00040030000D00FCF757FE8F4A8F4BFCF74F
:10562C0001F802000B0020002900FBF78BF80400A6
:10563C000D00FCF713FE002202900023200029002D
:10564C00FAF702FF00280BD00298FCF73DFE2B0066
:10565C002200FAF7F3FE43425841029B1B1A0293B5
:10566C0001231593029B162B0FD812981399DA006D
:10567C007B4B9B181A685B68FAF7E6FE002849D04A
:10568C00029B013B0293002315931A9B9E1B002344
:10569C0008933300013B0D9304D501239B1B089306
:1056AC0000230D93029B002B36DB029A0D9B944634
:1056BC0063440D93002314920E93229B0124092B17
:1056CC0062D8052B02DD0024043B2293229B981EFA
:1056DC00032862D8FAF718FD293634561A9B1B9A00
:1056EC009E18604BF218202A0FDD40239B1A9D4018
:1056FC005D4B0298F318D8402843FCF715FE0123A4
:10570C005A4C013E0919169376E7202302989B1AEE
:10571C009840F2E71590B8E7089B029A9B1A0893F9
:10572C0053420E9300231493C7E700230F93239B3C
:10573C00002B36DC01231A000C93069323920DE008
:10574C000123F3E70023239A0F939446029B6344AF
:10575C000C9301330693002B00DC01230022786AA2
:10576C00426004321500143541689D421DD9380041
:10577C0000F0F6FC059000281BD1D52102003C4B13
:10578C004900CAE60123DEE700230F942293013B74
:10579C000C93069300221333D0E701230F93023BA3
:1057AC00F6E7239B0C930693D8E701314160520036
:1057BC00D8E77B6A059A1A60069B0E2B00D9EBE0A2
:1057CC00002C00D1E8E0029B002B68DD1A000F21B1
:1057DC00234B0A40D2009B181D685E68029B1C116B
:1057EC0002231093029BDB050BD5224B0C401A6A4B
:1057FC005B6A12981399FBF70FFB03230A900B912A
:10580C0010931C4B0793002C36D10A980B992A0045
:10581C003300FBF701FB0A900B915CE0C980000898
:10582C00E08000080000F07F0F270000C580000812
:10583C00C880000898800008998000080000F03F9C
:10584C0001FCFFFF0000F83F61436F63A787D23F65
:10585C00B3C8608B288AC63FFB799F501344D33F53
:10586C00D88100083204000012040000000010FE71
:10587C003F810008B081000801231C420BD0109B13
:10588C00280001331093079B31001A685B68FBF703
:10589C00C9FE05000E00079B64100833B2E7022313
:1058AC001093029B002B16D0129813995C420F2375
:1058BC00B54A2340DB00D3181A685B68FBF7B2FECD
:1058CC00012600230A900B91B04D2411002C00D01E
:1058DC0094E0002B9FD1159B002B00D19BE00A9CE0
:1058EC000B9D002220002900A94BFAF7ADFD0028E2
:1058FC0000D190E0069B002B00D18CE00C9B002B80
:10590C0046DD029B0022200029005E1EA14BFBF706
:10591C0089FE109B0A900B91013310930C9B1098ED
:10592C000A9C0B9D0793FCF7CFFC22002B00FBF786
:10593C0079FE0022984BFAF705FF10901191109AFE
:10594C00119B0A920B93954A119B944663441793AF
:10595C000B93079B002B61D1002220002900904B58
:10596C00FCF7CCF80A9A179B04000D00FAF780FD9F
:10597C00002800D0B5E28B481199844661440B0095
:10598C00200029000A9AFAF75FFD002800D0A5E252
:10599C00129B139C0A930B941B9B002B00DA71E156
:1059AC00029A0E2A00DD6DE1774BD2009B185C68E1
:1059BC001B6808930994239B002B00DBF6E0069BE5
:1059CC00002B00DDF2E000D088E208980999002253
:1059DC00734BFBF727FE0A9A0B9BFAF753FD069EB7
:1059EC003500002800D05FE2059B059A0133079330
:1059FC0031231370029B013302935AE2344207D0D5
:105A0C00109B013310932A686B68FBF70BFE330075
:105A1C00641008355AE7029E069B80E7079B0F9996
:105A2C005A1E594BD2009B181A685B68002951D03A
:105A3C0000205D49FBF7F0F90A9A0B9BFCF75EF826
:105A4C00059A059B94461093079B0A900B9163440F
:105A5C00199329002000FCF701FC1790FCF734FC8B
:105A6C0002000B0020002900FCF748F8109B109A4C
:105A7C0001330793179B0400303313700A9A0B9B66
:105A8C000D00FAF7E1FC002875D122002B00002054
:105A9C003F49FCF733F80A9A0B9BFAF7D5FC002820
:105AAC0000D0D1E0199B079A934200D170E70A9875
:105ABC000B990022374BFBF7B5FD364B0A900B9137
:105ACC00002220002900FBF7ADFD079B04000D0010
